:1000000009C016C015C014C013C012C011C010C062
:100010000FC00EC011241FBECFE9CDBF20E0A0E667
:10002000B0E001C01D92A336B207E1F713D06BC058
:10003000E7CFC09AC19ABA9ABC9A089583E287B969
:1000400081E886B980E184BB0895369A349BFECF5F
:1000500085B10895EEDFF2DF80E090E040D080933C
:100060006200F3DF90E09093610080936000209144
:10007000620030E08217930711F4C29A01C0C2985F
:10008000B19915C080916200865F80936200C49A26
:100090002FE98DEF92E0215080409040E1F700C0C1
:1000A0000000C4986091620080E090E01FD0B09999
:1000B000D8CF809162008A5080936200C49A2FE961
:1000C0008DEF92E0215080409040E1F700C00000A9
:1000D000C4986091620080E090E008D0C2CFE199BE
:1000E000FECF8EBBE09A99278DB30895262FE19914
:1000F000FECF1CBA8EBB2DBB0FB6F894E29AE19AE4
:0A0100000FBE01960895F894FFCF9A
:00000001FF
